{
  "_format": "hh-sol-artifact-1",
  "contractName": "TaskContract",
  "sourceName": "contracts/TaskContract.sol",
  "abi": [
    {
      "anonymous": false,
      "inputs": [
        {
          "indexed": false,
          "internalType": "address",
          "name": "recipient",
          "type": "address"
        },
        {
          "indexed": false,
          "internalType": "uint256",
          "name": "taskId",
          "type": "uint256"
        }
      ],
      "name": "AddTask",
      "type": "event"
    },
    {
      "anonymous": false,
      "inputs": [
        {
          "indexed": false,
          "internalType": "uint256",
          "name": "taskId",
          "type": "uint256"
        },
        {
          "indexed": false,
          "internalType": "bool",
          "name": "isDeleted",
          "type": "bool"
        }
      ],
      "name": "DeleteTask",
      "type": "event"
    },
    {
      "inputs": [
        {
          "internalType": "string",
          "name": "_taskDescription",
          "type": "string"
        },
        {
          "internalType": "bool",
          "name": "isDeleted",
          "type": "bool"
        }
      ],
      "name": "addTask",
      "outputs": [],
      "stateMutability": "nonpayable",
      "type": "function"
    },
    {
      "inputs": [
        {
          "internalType": "uint256",
          "name": "_taskId",
          "type": "uint256"
        },
        {
          "internalType": "bool",
          "name": "isDeleted",
          "type": "bool"
        }
      ],
      "name": "deleteTask",
      "outputs": [],
      "stateMutability": "nonpayable",
      "type": "function"
    },
    {
      "inputs": [],
      "name": "getTasks",
      "outputs": [
        {
          "components": [
            {
              "internalType": "uint256",
              "name": "taskId",
              "type": "uint256"
            },
            {
              "internalType": "string",
              "name": "taskDescription",
              "type": "string"
            },
            {
              "internalType": "bool",
              "name": "isDeleted",
              "type": "bool"
            }
          ],
          "internalType": "struct TaskContract.Task[]",
          "name": "",
          "type": "tuple[]"
        }
      ],
      "stateMutability": "view",
      "type": "function"
    }
  ],
  "bytecode": "0x608060405234801561001057600080fd5b50610d67806100206000396000f3fe608060405234801561001057600080fd5b50600436106100415760003560e01c806304a87e381461004657806320df458114610064578063aaba290714610080575b600080fd5b61004e61009c565b60405161005b9190610876565b60405180910390f35b61007e60048036038101906100799190610a0d565b61038c565b005b61009a60048036038101906100959190610a95565b6104b6565b005b60606000808054905067ffffffffffffffff8111156100be576100bd6108b6565b5b6040519080825280602002602001820160405280156100f757816020015b6100e46105d1565b8152602001906001900390816100dc5790505b5090506000805b6000805490508110156102d2573373ffffffffffffffffffffffffffffffffffffffff166001600083815260200190815260200160002060009054906101000a900473ffffffffffffffffffffffffffffffffffffffff1673ffffffffffffffffffffffffffffffffffffffff161480156101a957506000818154811061018857610187610ad5565b5b906000526020600020906003020160020160009054906101000a900460ff16155b156102bf57600081815481106101c2576101c1610ad5565b5b9060005260206000209060030201604051806060016040529081600082015481526020016001820180546101f590610b33565b80601f016020809104026020016040519081016040528092919081815260200182805461022190610b33565b801561026e5780601f106102435761010080835404028352916020019161026e565b820191906000526020600020905b81548152906001019060200180831161025157829003601f168201915b505050505081526020016002820160009054906101000a900460ff1615151515815250508383815181106102a5576102a4610ad5565b5b602002602001018190525081806102bb90610b94565b9250505b80806102ca90610b94565b9150506100fe565b5060008167ffffffffffffffff8111156102ef576102ee6108b6565b5b60405190808252806020026020018201604052801561032857816020015b6103156105d1565b81526020019060019003908161030d5790505b50905060005b828110156103825783818151811061034957610348610ad5565b5b602002602001015182828151811061036457610363610ad5565b5b6020026020010181905250808061037a90610b94565b91505061032e565b5080935050505090565b6000808054905090506000604051806060016040528083815260200185815260200184151581525090806001815401808255809150506001900390600052602060002090600302016000909190919091506000820151816000015560208201518160010190805190602001906104039291906105f4565b5060408201518160020160006101000a81548160ff0219169083151502179055505050336001600083815260200190815260200160002060006101000a81548173ffffffffffffffffffffffffffffffffffffffff021916908373ffffffffffffffffffffffffffffffffffffffff1602179055507f1f54e1ba1832d428fbd7e7792beaf62b1fc5a382c207ffd614209c1413e94fda33826040516104a9929190610c2d565b60405180910390a1505050565b3373ffffffffffffffffffffffffffffffffffffffff166001600084815260200190815260200160002060009054906101000a900473ffffffffffffffffffffffffffffffffffffffff1673ffffffffffffffffffffffffffffffffffffffff1614610557576040517f08c379a000000000000000000000000000000000000000000000000000000000815260040161054e90610cd9565b60405180910390fd5b806000838154811061056c5761056b610ad5565b5b906000526020600020906003020160020160006101000a81548160ff0219169083151502179055507ff88a35c3d2016c409a46570b994a17b408dbc83c14a03f521512d50b85386d0682826040516105c5929190610d08565b60405180910390a15050565b604051806060016040528060008152602001606081526020016000151581525090565b82805461060090610b33565b90600052602060002090601f0160209004810192826106225760008555610669565b82601f1061063b57805160ff1916838001178555610669565b82800160010185558215610669579182015b8281111561066857825182559160200191906001019061064d565b5b509050610676919061067a565b5090565b5b8082111561069357600081600090555060010161067b565b5090565b600081519050919050565b600082825260208201905092915050565b6000819050602082019050919050565b6000819050919050565b6106d6816106c3565b82525050565b600081519050919050565b600082825260208201905092915050565b60005b838110156107165780820151818401526020810190506106fb565b83811115610725576000848401525b50505050565b6000601f19601f8301169050919050565b6000610747826106dc565b61075181856106e7565b93506107618185602086016106f8565b61076a8161072b565b840191505092915050565b60008115159050919050565b61078a81610775565b82525050565b60006060830160008301516107a860008601826106cd565b50602083015184820360208601526107c0828261073c565b91505060408301516107d56040860182610781565b508091505092915050565b60006107ec8383610790565b905092915050565b6000602082019050919050565b600061080c82610697565b61081681856106a2565b935083602082028501610828856106b3565b8060005b85811015610864578484038952815161084585826107e0565b9450610850836107f4565b925060208a0199505060018101905061082c565b50829750879550505050505092915050565b600060208201905081810360008301526108908184610801565b905092915050565b6000604051905090565b600080fd5b600080fd5b600080fd5b600080fd5b7f4e487b7100000000000000000000000000000000000000000000000000000000600052604160045260246000fd5b6108ee8261072b565b810181811067ffffffffffffffff8211171561090d5761090c6108b6565b5b80604052505050565b6000610920610898565b905061092c82826108e5565b919050565b600067ffffffffffffffff82111561094c5761094b6108b6565b5b6109558261072b565b9050602081019050919050565b82818337600083830152505050565b600061098461097f84610931565b610916565b9050828152602081018484840111156109a05761099f6108b1565b5b6109ab848285610962565b509392505050565b600082601f8301126109c8576109c76108ac565b5b81356109d8848260208601610971565b91505092915050565b6109ea81610775565b81146109f557600080fd5b50565b600081359050610a07816109e1565b92915050565b60008060408385031215610a2457610a236108a2565b5b600083013567ffffffffffffffff811115610a4257610a416108a7565b5b610a4e858286016109b3565b9250506020610a5f858286016109f8565b9150509250929050565b610a72816106c3565b8114610a7d57600080fd5b50565b600081359050610a8f81610a69565b92915050565b60008060408385031215610aac57610aab6108a2565b5b6000610aba85828601610a80565b9250506020610acb858286016109f8565b9150509250929050565b7f4e487b7100000000000000000000000000000000000000000000000000000000600052603260045260246000fd5b7f4e487b7100000000000000000000000000000000000000000000000000000000600052602260045260246000fd5b60006002820490506001821680610b4b57607f821691505b60208210811415610b5f57610b5e610b04565b5b50919050565b7f4e487b7100000000000000000000000000000000000000000000000000000000600052601160045260246000fd5b6000610b9f826106c3565b91507fffffffffffffffffffffffffffffffffffffffffffffffffffffffffffffffff821415610bd257610bd1610b65565b5b600182019050919050565b600073ffffffffffffffffffffffffffffffffffffffff82169050919050565b6000610c0882610bdd565b9050919050565b610c1881610bfd565b82525050565b610c27816106c3565b82525050565b6000604082019050610c426000830185610c0f565b610c4f6020830184610c1e565b9392505050565b600082825260208201905092915050565b7f596f7520617265206e6f7420746865206f776e6572206f66207468697320746160008201527f736b000000000000000000000000000000000000000000000000000000000000602082015250565b6000610cc3602283610c56565b9150610cce82610c67565b604082019050919050565b60006020820190508181036000830152610cf281610cb6565b9050919050565b610d0281610775565b82525050565b6000604082019050610d1d6000830185610c1e565b610d2a6020830184610cf9565b939250505056fea26469706673582212201760ca9e25936781cba63c7423d2b4f25f25be55fb972dc510d5019c27926cac64736f6c63430008090033",
  "linkReferences": {},
  "deployedLinkReferences": {}
}